{
  "_format": "hh-sol-artifact-1",
  "contractName": "TokenShop",
  "sourceName": "contracts/Erc.sol",
  "abi": [
    {
      "inputs": [],
      "stateMutability": "nonpayable",
      "type": "constructor"
    },
    {
      "anonymous": false,
      "inputs": [
        {
          "indexed": false,
          "internalType": "uint256",
          "name": "_amount",
          "type": "uint256"
        },
        {
          "indexed": true,
          "internalType": "address",
          "name": "_buyer",
          "type": "address"
        }
      ],
      "name": "Bougth",
      "type": "event"
    },
    {
      "anonymous": false,
      "inputs": [
        {
          "indexed": false,
          "internalType": "uint256",
          "name": "_amount",
          "type": "uint256"
        },
        {
          "indexed": true,
          "internalType": "address",
          "name": "_buyer",
          "type": "address"
        }
      ],
      "name": "BougthBonus",
      "type": "event"
    },
    {
      "anonymous": false,
      "inputs": [
        {
          "indexed": false,
          "internalType": "uint256",
          "name": "_amount",
          "type": "uint256"
        },
        {
          "indexed": true,
          "internalType": "address",
          "name": "_seller",
          "type": "address"
        }
      ],
      "name": "Sold",
      "type": "event"
    },
    {
      "inputs": [
        {
          "internalType": "uint256",
          "name": "timestamp",
          "type": "uint256"
        }
      ],
      "name": "_setUnlockTime",
      "outputs": [],
      "stateMutability": "nonpayable",
      "type": "function"
    },
    {
      "inputs": [
        {
          "internalType": "uint256",
          "name": "tokenAmount",
          "type": "uint256"
        }
      ],
      "name": "buyTokens",
      "outputs": [],
      "stateMutability": "payable",
      "type": "function"
    },
    {
      "inputs": [],
      "name": "buyTokensBonus",
      "outputs": [],
      "stateMutability": "payable",
      "type": "function"
    },
    {
      "inputs": [],
      "name": "getGlobalMultiplier",
      "outputs": [
        {
          "internalType": "uint256",
          "name": "",
          "type": "uint256"
        }
      ],
      "stateMutability": "view",
      "type": "function"
    },
    {
      "inputs": [],
      "name": "getIsUsed",
      "outputs": [
        {
          "internalType": "bool",
          "name": "",
          "type": "bool"
        }
      ],
      "stateMutability": "view",
      "type": "function"
    },
    {
      "inputs": [],
      "name": "getMultiplier",
      "outputs": [
        {
          "internalType": "uint256",
          "name": "",
          "type": "uint256"
        }
      ],
      "stateMutability": "view",
      "type": "function"
    },
    {
      "inputs": [],
      "name": "owner",
      "outputs": [
        {
          "internalType": "address payable",
          "name": "",
          "type": "address"
        }
      ],
      "stateMutability": "view",
      "type": "function"
    },
    {
      "inputs": [
        {
          "internalType": "uint256",
          "name": "value",
          "type": "uint256"
        }
      ],
      "name": "setGlobalMultiplier",
      "outputs": [],
      "stateMutability": "nonpayable",
      "type": "function"
    },
    {
      "inputs": [],
      "name": "token",
      "outputs": [
        {
          "internalType": "contract iERC20",
          "name": "",
          "type": "address"
        }
      ],
      "stateMutability": "view",
      "type": "function"
    },
    {
      "inputs": [],
      "name": "tokenBalanceContract",
      "outputs": [
        {
          "internalType": "uint256",
          "name": "",
          "type": "uint256"
        }
      ],
      "stateMutability": "view",
      "type": "function"
    },
    {
      "inputs": [],
      "name": "tokenBalanceCurrent",
      "outputs": [
        {
          "internalType": "uint256",
          "name": "",
          "type": "uint256"
        }
      ],
      "stateMutability": "view",
      "type": "function"
    },
    {
      "inputs": [],
      "name": "tokenBalanceCurrentBonuses",
      "outputs": [
        {
          "internalType": "uint256",
          "name": "",
          "type": "uint256"
        }
      ],
      "stateMutability": "view",
      "type": "function"
    },
    {
      "inputs": [],
      "name": "tokenBonusBalanceContract",
      "outputs": [
        {
          "internalType": "uint256",
          "name": "",
          "type": "uint256"
        }
      ],
      "stateMutability": "view",
      "type": "function"
    },
    {
      "inputs": [
        {
          "internalType": "address payable",
          "name": "newOwner",
          "type": "address"
        }
      ],
      "name": "transferOwnership",
      "outputs": [],
      "stateMutability": "nonpayable",
      "type": "function"
    },
    {
      "inputs": [],
      "name": "unlockTokens",
      "outputs": [],
      "stateMutability": "nonpayable",
      "type": "function"
    },
    {
      "inputs": [],
      "name": "withdrawal",
      "outputs": [],
      "stateMutability": "nonpayable",
      "type": "function"
    }
  ],
  "bytecode": "0x608060405234801561001057600080fd5b503061001e426105a0610098565b60405161002a9061008b565b6001600160a01b0390921682526020820152604001604051809103906000f08015801561005b573d6000803e3d6000fd5b50600080546001600160a01b03929092166001600160a01b031992831617905560018054909116331790556100bf565b61120c80610f2883390190565b808201808211156100b957634e487b7160e01b600052601160045260246000fd5b92915050565b610e5a806100ce6000396000f3fe6080604052600436106100f35760003560e01c80639ac4a43d1161008a578063d4e9329211610059578063d4e9329214610243578063f2fde38b14610258578063f968f49314610278578063fc0c546a1461028d57600080fd5b80639ac4a43d146101fc578063a4252b3314610211578063bc259d3e14610226578063ce28520d1461022e57600080fd5b8063781e0efe116100c6578063781e0efe1461017a5780638da5cb5b1461018f5780639760174b146101c75780639a6e3c58146101dc57600080fd5b806318a76c30146100f85780631978b6c11461011a5780633610724e1461014457806340490a9014610157575b600080fd5b34801561010457600080fd5b50610118610113366004610ce7565b6102ad565b005b34801561012657600080fd5b5061012f61030f565b60405190151581526020015b60405180910390f35b610118610152366004610ce7565b610381565b34801561016357600080fd5b5061016c6106d1565b60405190815260200161013b565b34801561018657600080fd5b5061016c61073f565b34801561019b57600080fd5b506001546101af906001600160a01b031681565b6040516001600160a01b03909116815260200161013b565b3480156101d357600080fd5b5061016c610793565b3480156101e857600080fd5b506101186101f7366004610ce7565b6107e2565b34801561020857600080fd5b5061016c610813565b34801561021d57600080fd5b5061016c610844565b610118610893565b34801561023a57600080fd5b5061016c610aa0565b34801561024f57600080fd5b50610118610ad1565b34801561026457600080fd5b50610118610273366004610d00565b610b9b565b34801561028457600080fd5b50610118610c2c565b34801561029957600080fd5b506000546101af906001600160a01b031681565b60005460405163018a76c360e41b8152600481018390526001600160a01b03909116906318a76c30906024015b600060405180830381600087803b1580156102f457600080fd5b505af1158015610308573d6000803e3d6000fd5b5050505050565b600080546040516324020c4b60e21b81523360048201526001600160a01b0390911690639008312c90602401602060405180830381865afa158015610358573d6000803e3d6000fd5b505050506040513d601f19601f8201168201806040525081019061037c9190610d30565b905090565b61038f565b60405180910390fd5b6000610399610793565b116103df5760405162461bcd60e51b8152602060048201526016602482015275436f6e747261637420686173206e6f20746f6b656e7360501b6044820152606401610386565b60006103e9610aa0565b905060006103f5610813565b90506103ff61073f565b6000036106205760648310156104575760405162461bcd60e51b815260206004820152601e60248201527f546f6b656e20616d6f756e742062656c6f77206d696e696d756d2031303000006044820152606401610386565b6103e88311156104a95760405162461bcd60e51b815260206004820152601f60248201527f546f6b656e20616d6f756e742061626f7665206d6178696d756d2031303030006044820152606401610386565b6104b4606484610d68565b156105145760405162461bcd60e51b815260206004820152602a60248201527f546f6b656e20616d6f756e74206d7573742062652061206d756c7469706c652060448201526906f6620746865203130360b41b6064820152608401610386565b6103e8816105228486610d92565b61052c9190610d92565b111561057a5760405162461bcd60e51b815260206004820181905260248201527f546f6b656e20616d6f756e742063616e206265206d6178696d756d20313030306044820152606401610386565b60005460405163a9059cbb60e01b8152336004820152602481018590526001600160a01b039091169063a9059cbb90604401600060405180830381600087803b1580156105c657600080fd5b505af11580156105da573d6000803e3d6000fd5b50506040518581523392507f16f4459feafa4bdaa6625b5cac0247beb03082a5eecb5d3f27a0ac79dd994f86915060200160405180910390a261061b610c8b565b505050565b61062861073f565b6106329084610dab565b60005460405163a9059cbb60e01b8152336004820152602481018390529194506001600160a01b03169063a9059cbb90604401600060405180830381600087803b15801561067f57600080fd5b505af1158015610693573d6000803e3d6000fd5b50506040518581523392507f7c8c4951b8393195fb27da719e14713e390cb399195bb93280aabeee38030686915060200160405180910390a2505050565b60008054604051633164096360e21b81523360048201526001600160a01b039091169063c590258c906024015b602060405180830381865afa15801561071b573d6000803e3d6000fd5b505050506040513d601f19601f8201168201806040525081019061037c9190610dc2565b60008060009054906101000a90046001600160a01b03166001600160a01b031663781e0efe6040518163ffffffff1660e01b8152600401602060405180830381865afa15801561071b573d6000803e3d6000fd5b6000306107b25760405162461bcd60e51b815260040161038690610ddb565b6000546040516370a0823160e01b81523060048201526001600160a01b03909116906370a08231906024016106fe565b60005460405163dace455760e01b8152600481018390526001600160a01b039091169063dace4557906024016102da565b60008054604051632f9fe60b60e21b81523360048201526001600160a01b039091169063be7f982c906024016106fe565b6000306108635760405162461bcd60e51b815260040161038690610ddb565b600054604051632f9fe60b60e21b81523060048201526001600160a01b039091169063be7f982c906024016106fe565b600061089d610aa0565b905060006108a96106d1565b116108f65760405162461bcd60e51b815260206004820152601c60248201527f596f752068617665206e6576657220626f7567687420746f6b656e73000000006044820152606401610386565b6108fe61030f565b156109415760405162461bcd60e51b8152602060048201526013602482015272109bdb9d5cc81a185cc81899595b881d5cd959606a1b6044820152606401610386565b600061094b610793565b116109915760405162461bcd60e51b8152602060048201526016602482015275436f6e747261637420686173206e6f20746f6b656e7360501b6044820152606401610386565b600061099b6106d1565b6109a59083610dab565b6000546040516312b5a79760e01b8152336004820152602481018390529192506001600160a01b0316906312b5a79790604401600060405180830381600087803b1580156109f257600080fd5b505af1158015610a06573d6000803e3d6000fd5b50506040518381523392507f7c8c4951b8393195fb27da719e14713e390cb399195bb93280aabeee38030686915060200160405180910390a260005460405163682ad0a560e01b81523360048201526001600160a01b039091169063682ad0a590602401600060405180830381600087803b158015610a8457600080fd5b505af1158015610a98573d6000803e3d6000fd5b505050505050565b600080546040516370a0823160e01b81523360048201526001600160a01b03909116906370a08231906024016106fe565b6001546001600160a01b03163314610b1a5760405162461bcd60e51b815260206004820152600c60248201526b2737ba1030b71027bbb732b960a11b6044820152606401610386565b4780610b5d5760405162461bcd60e51b8152602060048201526012602482015271496e73756666696369656e742066756e647360701b6044820152606401610386565b6001546040516001600160a01b039091169082156108fc029083906000818181858888f19350505050158015610b97573d6000803e3d6000fd5b5050565b6001546001600160a01b03163314610be45760405162461bcd60e51b815260206004820152600c60248201526b2737ba1030b71027bbb732b960a11b6044820152606401610386565b6001600160a01b038116610c0a5760405162461bcd60e51b815260040161038690610ddb565b600180546001600160a01b0319166001600160a01b0392909216919091179055565b600054604051633f7e2f1960e11b81523360048201526001600160a01b0390911690637efc5e3290602401600060405180830381600087803b158015610c7157600080fd5b505af1158015610c85573d6000803e3d6000fd5b50505050565b60006064610c97610aa0565b610ca19190610e10565b90506002811015610cb0575060025b600054604051633349657760e11b8152336004820152602481018390526001600160a01b0390911690636692caee906044016102da565b600060208284031215610cf957600080fd5b5035919050565b600060208284031215610d1257600080fd5b81356001600160a01b0381168114610d2957600080fd5b9392505050565b600060208284031215610d4257600080fd5b81518015158114610d2957600080fd5b634e487b7160e01b600052601260045260246000fd5b600082610d7757610d77610d52565b500690565b634e487b7160e01b600052601160045260246000fd5b80820180821115610da557610da5610d7c565b92915050565b8082028115828204841417610da557610da5610d7c565b600060208284031215610dd457600080fd5b5051919050565b6020808252818101527f4e6577206f776e65722063616e6e6f74206265207a65726f2061646472657373604082015260600190565b600082610e1f57610e1f610d52565b50049056fea2646970667358221220aab12015598ad2a9a7c76ccc9607947a3d4221d1d57ea02d13e237f4eed819c264736f6c6343000812003360806040523480156200001157600080fd5b506040516200120c3803806200120c83398101604081905262000034916200029f565b6040518060400160405280600c81526020016b151154d5081091481391561560a21b815250604051806040016040528060088152602001671d195cdd189b9e1d60c21b81525063018cba806302625a00858584600b90816200009791906200037f565b50600a620000a687826200037f565b50600080546001600160a01b031916331781556003829055600455620000cd8483620000e7565b620000d98383620001c6565b505050505050505062000473565b6000546001600160a01b03163314620001365760405162461bcd60e51b815260206004820152600c60248201526b2737ba1030b71027bbb732b960a11b60448201526064015b60405180910390fd5b6001600160a01b03811660009081526005602052604081208054849290620001609084906200044b565b9250508190555081600160008282546200017b91906200044b565b90915550506040518281526001600160a01b038216906000907fddf252ad1be2c89b69c2b068fc378daa952ba7f163c4a11628f55a4df523b3ef906020015b60405180910390a35050565b6000546001600160a01b03163314620002115760405162461bcd60e51b815260206004820152600c60248201526b2737ba1030b71027bbb732b960a11b60448201526064016200012d565b6001600160a01b038116600090815260066020526040812080548492906200023b9084906200044b565b9250508190555081600260008282546200025691906200044b565b90915550506040518281526001600160a01b038216906000907f0e3e02bf4d0f1d540b6dde28c08c72e5a2e6b7e1024a29dfbb330ecd77a631ea90602001620001ba565b505050565b60008060408385031215620002b357600080fd5b82516001600160a01b0381168114620002cb57600080fd5b6020939093015192949293505050565b634e487b7160e01b600052604160045260246000fd5b600181811c908216806200030657607f821691505b6020821081036200032757634e487b7160e01b600052602260045260246000fd5b50919050565b601f8211156200029a57600081815260208120601f850160051c81016020861015620003565750805b601f850160051c820191505b81811015620003775782815560010162000362565b505050505050565b81516001600160401b038111156200039b576200039b620002db565b620003b381620003ac8454620002f1565b846200032d565b602080601f831160018114620003eb5760008415620003d25750858301515b600019600386901b1c1916600185901b17855562000377565b600085815260208120601f198616915b828110156200041c57888601518255948401946001909101908401620003fb565b50858210156200043b5787850151600019600388901b60f8161c191681555b5050505050600190811b01905550565b808201808211156200046d57634e487b7160e01b600052601160045260246000fd5b92915050565b610d8980620004836000396000f3fe608060405234801561001057600080fd5b506004361061014d5760003560e01c8063781e0efe116100c3578063a24571681161007c578063a2457168146102d2578063a9059cbb146102e5578063be7f982c146102f8578063c590258c14610321578063dace45571461034a578063dd62ed3e1461035d57600080fd5b8063781e0efe1461024d5780637efc5e32146102555780639008312c1461026857806394bf804d146102a457806395d89b41146102b75780639dc29fac146102bf57600080fd5b806323b872dd1161011557806323b872dd146101bd578063313ce567146101d057806365e93916146101d75780636692caee146101df578063682ad0a5146101f257806370a082311461022457600080fd5b806306fdde0314610152578063095ea7b31461017057806312b5a7971461018557806318160ddd1461019857806318a76c30146101aa575b600080fd5b61015a610370565b6040516101679190610b2a565b60405180910390f35b61018361017e366004610b94565b610402565b005b610183610193366004610b94565b610411565b6001545b604051908152602001610167565b6101836101b8366004610bbe565b6104e3565b6101836101cb366004610bd7565b610512565b600061019c565b60025461019c565b6101836101ed366004610b94565b61069e565b610183610200366004610c13565b6001600160a01b03166000908152600860205260409020805460ff19166001179055565b61019c610232366004610c13565b6001600160a01b031660009081526005602052604090205490565b60045461019c565b610183610263366004610c13565b6106f7565b610294610276366004610c13565b6001600160a01b031660009081526008602052604090205460ff1690565b6040519015158152602001610167565b6101836102b2366004610c35565b6107c7565b61015a61087d565b6101836102cd366004610b94565b61088c565b6101836102e0366004610c35565b610900565b6101836102f3366004610b94565b6109ae565b61019c610306366004610c13565b6001600160a01b031660009081526006602052604090205490565b61019c61032f366004610c13565b6001600160a01b031660009081526007602052604090205490565b610183610358366004610bbe565b610a6d565b61019c61036b366004610c61565b610a9c565b6060600a805461037f90610c8b565b80601f01602080910402602001604051908101604052809291908181526020018280546103ab90610c8b565b80156103f85780601f106103cd576101008083540402835291602001916103f8565b820191906000526020600020905b8154815290600101906020018083116103db57829003601f168201915b5050505050905090565b61040d338383610ac9565b5050565b33600081815260056020526040902054829081111561044b5760405162461bcd60e51b815260040161044290610cc5565b60405180910390fd5b336000908152600660205260408120805485929061046a908490610d07565b90915550506001600160a01b03841660009081526006602052604081208054859290610497908490610d1a565b90915550506040518381526001600160a01b0385169033907f0e3e02bf4d0f1d540b6dde28c08c72e5a2e6b7e1024a29dfbb330ecd77a631ea906020015b60405180910390a350505050565b6000546001600160a01b0316331461050d5760405162461bcd60e51b815260040161044290610d2d565b600455565b828180610534836001600160a01b031660009081526005602052604090205490565b10156105525760405162461bcd60e51b815260040161044290610cc5565b6001600160a01b038086166000908152600960209081526040808320938816835292905220548311156105b65760405162461bcd60e51b815260206004820152600c60248201526b18da1958dac8185b5bdd5b9d60a21b6044820152606401610442565b6001600160a01b0385166000908152600960209081526040808320338452909152812080548592906105e9908490610d07565b90915550506001600160a01b03851660009081526005602052604081208054859290610616908490610d07565b90915550506001600160a01b03841660009081526005602052604081208054859290610643908490610d1a565b92505081905550836001600160a01b0316856001600160a01b03167fddf252ad1be2c89b69c2b068fc378daa952ba7f163c4a11628f55a4df523b3ef8560405161068f91815260200190565b60405180910390a35050505050565b6001600160a01b03821660008181526007602052604090819020839055517fcfbb0928a645c3fa903caec330e94d32e623d76491249ad174f0c1601a21208e906106eb9084815260200190565b60405180910390a25050565b6003544210156107415760405162461bcd60e51b8152602060048201526015602482015274151a5b59481a185cc81b9bdd0818dbdb59481e595d605a1b6044820152606401610442565b6001600160a01b03811660009081526006602090815260408083205460059092528220805491928392610775908490610d1a565b90915550506001600160a01b03821660008181526006602052604080822091909155517f5299067687ec2bff307746f7041f8d84bc217fbbaac318877a6f9e78a12d1fd9906106eb9084815260200190565b6000546001600160a01b031633146107f15760405162461bcd60e51b815260040161044290610d2d565b6001600160a01b03811660009081526005602052604081208054849290610819908490610d1a565b9250508190555081600160008282546108329190610d1a565b90915550506040518281526001600160a01b038216906000907fddf252ad1be2c89b69c2b068fc378daa952ba7f163c4a11628f55a4df523b3ef906020015b60405180910390a35050565b6060600b805461037f90610c8b565b6000546001600160a01b031633146108b65760405162461bcd60e51b815260040161044290610d2d565b6001600160a01b038216600090815260056020526040812080548392906108de908490610d07565b9250508190555080600160008282546108f79190610d07565b90915550505050565b6000546001600160a01b0316331461092a5760405162461bcd60e51b815260040161044290610d2d565b6001600160a01b03811660009081526006602052604081208054849290610952908490610d1a565b92505081905550816002600082825461096b9190610d1a565b90915550506040518281526001600160a01b038216906000907f0e3e02bf4d0f1d540b6dde28c08c72e5a2e6b7e1024a29dfbb330ecd77a631ea90602001610871565b3360008181526005602052604090205482908111156109df5760405162461bcd60e51b815260040161044290610cc5565b33600090815260056020526040812080548592906109fe908490610d07565b90915550506001600160a01b03841660009081526005602052604081208054859290610a2b908490610d1a565b90915550506040518381526001600160a01b0385169033907fddf252ad1be2c89b69c2b068fc378daa952ba7f163c4a11628f55a4df523b3ef906020016104d5565b6000546001600160a01b03163314610a975760405162461bcd60e51b815260040161044290610d2d565b600355565b6001600160a01b038083166000908152600960209081526040808320938516835292905220545b92915050565b6001600160a01b0383811660008181526009602090815260408083209487168084529482529182902085905590518481527f6e11fb1b7f119e3f2fa29896ef5fdf8b8a2d0d4df6fe90ba8668e7d8b2ffa25e910160405180910390a3505050565b600060208083528351808285015260005b81811015610b5757858101830151858201604001528201610b3b565b506000604082860101526040601f19601f8301168501019250505092915050565b80356001600160a01b0381168114610b8f57600080fd5b919050565b60008060408385031215610ba757600080fd5b610bb083610b78565b946020939093013593505050565b600060208284031215610bd057600080fd5b5035919050565b600080600060608486031215610bec57600080fd5b610bf584610b78565b9250610c0360208501610b78565b9150604084013590509250925092565b600060208284031215610c2557600080fd5b610c2e82610b78565b9392505050565b60008060408385031215610c4857600080fd5b82359150610c5860208401610b78565b90509250929050565b60008060408385031215610c7457600080fd5b610c7d83610b78565b9150610c5860208401610b78565b600181811c90821680610c9f57607f821691505b602082108103610cbf57634e487b7160e01b600052602260045260246000fd5b50919050565b6020808252601290820152716e6f7420656e6f75676820746f6b656e732160701b604082015260600190565b634e487b7160e01b600052601160045260246000fd5b81810381811115610ac357610ac3610cf1565b80820180821115610ac357610ac3610cf1565b6020808252600c908201526b2737ba1030b71027bbb732b960a11b60408201526060019056fea2646970667358221220a9bb0c7214b9045bfdf778074995ae6291f7c70265b15fee5add0252521ef81d64736f6c63430008120033",
  "linkReferences": {},
  "deployedLinkReferences": {}
}